{
  "contractName": "Adoption",
  "abi": [
    {
      "constant": false,
      "inputs": [
        {
          "name": "_address",
          "type": "address"
        },
        {
          "name": "_home_address",
          "type": "string"
        },
        {
          "name": "_current_address",
          "type": "string"
        },
        {
          "name": "_country",
          "type": "string"
        },
        {
          "name": "_state",
          "type": "string"
        },
        {
          "name": "_city",
          "type": "string"
        },
        {
          "name": "_phone_no",
          "type": "string"
        }
      ],
      "name": "contact_details",
      "outputs": [],
      "payable": false,
      "stateMutability": "nonpayable",
      "type": "function"
    },
    {
      "constant": false,
      "inputs": [
        {
          "name": "_address",
          "type": "address"
        },
        {
          "name": "_b_day",
          "type": "string"
        },
        {
          "name": "_gender",
          "type": "string"
        },
        {
          "name": "_occupation",
          "type": "string"
        },
        {
          "name": "_blood_group",
          "type": "string"
        },
        {
          "name": "_marital_status",
          "type": "string"
        }
      ],
      "name": "personal_details",
      "outputs": [],
      "payable": false,
      "stateMutability": "nonpayable",
      "type": "function"
    },
    {
      "constant": true,
      "inputs": [
        {
          "name": "",
          "type": "address"
        }
      ],
      "name": "Mans",
      "outputs": [
        {
          "name": "f_name",
          "type": "string"
        },
        {
          "name": "l_name",
          "type": "string"
        },
        {
          "name": "email",
          "type": "string"
        }
      ],
      "payable": false,
      "stateMutability": "view",
      "type": "function"
    },
    {
      "constant": true,
      "inputs": [
        {
          "name": "",
          "type": "uint256"
        }
      ],
      "name": "ManAccts",
      "outputs": [
        {
          "name": "",
          "type": "address"
        }
      ],
      "payable": false,
      "stateMutability": "view",
      "type": "function"
    },
    {
      "constant": true,
      "inputs": [
        {
          "name": "",
          "type": "address"
        }
      ],
      "name": "Mans3",
      "outputs": [
        {
          "name": "state",
          "type": "string"
        },
        {
          "name": "city",
          "type": "string"
        },
        {
          "name": "country",
          "type": "string"
        },
        {
          "name": "home_address",
          "type": "string"
        },
        {
          "name": "current_address",
          "type": "string"
        },
        {
          "name": "phone_no",
          "type": "string"
        }
      ],
      "payable": false,
      "stateMutability": "view",
      "type": "function"
    },
    {
      "constant": false,
      "inputs": [
        {
          "name": "_address",
          "type": "address"
        },
        {
          "name": "_f_name",
          "type": "string"
        },
        {
          "name": "_l_name",
          "type": "string"
        },
        {
          "name": "_email",
          "type": "string"
        }
      ],
      "name": "basic_details",
      "outputs": [],
      "payable": false,
      "stateMutability": "nonpayable",
      "type": "function"
    },
    {
      "constant": true,
      "inputs": [
        {
          "name": "",
          "type": "address"
        }
      ],
      "name": "Mans2",
      "outputs": [
        {
          "name": "b_day",
          "type": "string"
        },
        {
          "name": "gender",
          "type": "string"
        },
        {
          "name": "occupation",
          "type": "string"
        },
        {
          "name": "blood_group",
          "type": "string"
        },
        {
          "name": "marital_status",
          "type": "string"
        }
      ],
      "payable": false,
      "stateMutability": "view",
      "type": "function"
    }
  ],
  "bytecode": "0x6060604052341561000f57600080fd5b6112c98061001e6000396000f300606060405260043610610083576000357c0100000000000000000000000000000000000000000000000000000000900463ffffffff1680632568064d1461008857806397bd94081461025357806398f27e45146103db5780639d129cf4146105bc578063adf52e151461061f578063e3196f8a1461099b578063f195e5b414610a9d575b600080fd5b341561009357600080fd5b610251600480803573ffffffffffffffffffffffffffffffffffffffff1690602001909190803590602001908201803590602001908080601f0160208091040260200160405190810160405280939291908181526020018383808284378201915050505050509190803590602001908201803590602001908080601f0160208091040260200160405190810160405280939291908181526020018383808284378201915050505050509190803590602001908201803590602001908080601f0160208091040260200160405190810160405280939291908181526020018383808284378201915050505050509190803590602001908201803590602001908080601f0160208091040260200160405190810160405280939291908181526020018383808284378201915050505050509190803590602001908201803590602001908080601f0160208091040260200160405190810160405280939291908181526020018383808284378201915050505050509190803590602001908201803590602001908080601f01602080910402602001604051908101604052809392919081815260200183838082843782019150505050505091905050610d90565b005b341561025e57600080fd5b6103d9600480803573ffffffffffffffffffffffffffffffffffffffff1690602001909190803590602001908201803590602001908080601f0160208091040260200160405190810160405280939291908181526020018383808284378201915050505050509190803590602001908201803590602001908080601f0160208091040260200160405190810160405280939291908181526020018383808284378201915050505050509190803590602001908201803590602001908080601f0160208091040260200160405190810160405280939291908181526020018383808284378201915050505050509190803590602001908201803590602001908080601f0160208091040260200160405190810160405280939291908181526020018383808284378201915050505050509190803590602001908201803590602001908080601f01602080910402602001604051908101604052809392919081815260200183838082843782019150505050505091905050610ed8565b005b34156103e657600080fd5b610412600480803573ffffffffffffffffffffffffffffffffffffffff16906020019091905050611006565b604051808060200180602001806020018481038452878181546001816001161561010002031660029004815260200191508054600181600116156101000203166002900480156104a35780601f10610478576101008083540402835291602001916104a3565b820191906000526020600020905b81548152906001019060200180831161048657829003601f168201915b50508481038352868181546001816001161561010002031660029004815260200191508054600181600116156101000203166002900480156105265780601f106104fb57610100808354040283529160200191610526565b820191906000526020600020905b81548152906001019060200180831161050957829003601f168201915b50508481038252858181546001816001161561010002031660029004815260200191508054600181600116156101000203166002900480156105a95780601f1061057e576101008083540402835291602001916105a9565b820191906000526020600020905b81548152906001019060200180831161058c57829003601f168201915b5050965050505050505060405180910390f35b34156105c757600080fd5b6105dd600480803590602001909190505061102d565b604051808273ffffffffffffffffffffffffffffffffffffffff1673ffffffffffffffffffffffffffffffffffffffff16815260200191505060405180910390f35b341561062a57600080fd5b610656600480803573ffffffffffffffffffffffffffffffffffffffff1690602001909190505061106c565b6040518080602001806020018060200180602001806020018060200187810387528d8181546001816001161561010002031660029004815260200191508054600181600116156101000203166002900480156106f35780601f106106c8576101008083540402835291602001916106f3565b820191906000526020600020905b8154815290600101906020018083116106d657829003601f168201915b505087810386528c8181546001816001161561010002031660029004815260200191508054600181600116156101000203166002900480156107765780601f1061074b57610100808354040283529160200191610776565b820191906000526020600020905b81548152906001019060200180831161075957829003601f168201915b505087810385528b8181546001816001161561010002031660029004815260200191508054600181600116156101000203166002900480156107f95780601f106107ce576101008083540402835291602001916107f9565b820191906000526020600020905b8154815290600101906020018083116107dc57829003601f168201915b505087810384528a81815460018160011615610100020316600290048152602001915080546001816001161561010002031660029004801561087c5780601f106108515761010080835404028352916020019161087c565b820191906000526020600020905b81548152906001019060200180831161085f57829003601f168201915b50508781038352898181546001816001161561010002031660029004815260200191508054600181600116156101000203166002900480156108ff5780601f106108d4576101008083540402835291602001916108ff565b820191906000526020600020905b8154815290600101906020018083116108e257829003601f168201915b50508781038252888181546001816001161561010002031660029004815260200191508054600181600116156101000203166002900480156109825780601f1061095757610100808354040283529160200191610982565b820191906000526020600020905b81548152906001019060200180831161096557829003601f168201915b50509c5050505050505050505050505060405180910390f35b34156109a657600080fd5b610a9b600480803573ffffffffffffffffffffffffffffffffffffffff1690602001909190803590602001908201803590602001908080601f0160208091040260200160405190810160405280939291908181526020018383808284378201915050505050509190803590602001908201803590602001908080601f0160208091040260200160405190810160405280939291908181526020018383808284378201915050505050509190803590602001908201803590602001908080601f016020809104026020016040519081016040528093929190818152602001838380828437820191505050505050919050506110a2565b005b3415610aa857600080fd5b610ad4600480803573ffffffffffffffffffffffffffffffffffffffff1690602001909190505061119b565b60405180806020018060200180602001806020018060200186810386528b818154600181600116156101000203166002900481526020019150805460018160011615610100020316600290048015610b6d5780601f10610b4257610100808354040283529160200191610b6d565b820191906000526020600020905b815481529060010190602001808311610b5057829003601f168201915b505086810385528a818154600181600116156101000203166002900481526020019150805460018160011615610100020316600290048015610bf05780601f10610bc557610100808354040283529160200191610bf0565b820191906000526020600020905b815481529060010190602001808311610bd357829003601f168201915b5050868103845289818154600181600116156101000203166002900481526020019150805460018160011615610100020316600290048015610c735780601f10610c4857610100808354040283529160200191610c73565b820191906000526020600020905b815481529060010190602001808311610c5657829003601f168201915b5050868103835288818154600181600116156101000203166002900481526020019150805460018160011615610100020316600290048015610cf65780601f10610ccb57610100808354040283529160200191610cf6565b820191906000526020600020905b815481529060010190602001808311610cd957829003601f168201915b5050868103825287818154600181600116156101000203166002900481526020019150805460018160011615610100020316600290048015610d795780601f10610d4e57610100808354040283529160200191610d79565b820191906000526020600020905b815481529060010190602001808311610d5c57829003601f168201915b50509a505050505050505050505060405180910390f35b6000600360008973ffffffffffffffffffffffffffffffffffffffff1673ffffffffffffffffffffffffffffffffffffffff168152602001908152602001600020905086816003019080519060200190610deb9291906111cc565b5085816004019080519060200190610e049291906111cc565b5084816002019080519060200190610e1d9291906111cc565b5083816000019080519060200190610e369291906111cc565b5082816001019080519060200190610e4f9291906111cc565b5081816005019080519060200190610e689291906111cc565b506001808054806001018281610e7e919061124c565b916000526020600020900160008b909190916101000a81548173ffffffffffffffffffffffffffffffffffffffff021916908373ffffffffffffffffffffffffffffffffffffffff16021790555050505050505050505050565b6000600260008873ffffffffffffffffffffffffffffffffffffffff1673ffffffffffffffffffffffffffffffffffffffff168152602001908152602001600020905085816000019080519060200190610f339291906111cc565b5084816001019080519060200190610f4c9291906111cc565b5083816002019080519060200190610f659291906111cc565b5082816003019080519060200190610f7e9291906111cc565b5081816004019080519060200190610f979291906111cc565b506001808054806001018281610fad919061124c565b916000526020600020900160008a909190916101000a81548173ffffffffffffffffffffffffffffffffffffffff021916908373ffffffffffffffffffffffffffffffffffffffff160217905550505050505050505050565b60006020528060005260406000206000915090508060000190806001019080600201905083565b60018181548110151561103c57fe5b90600052602060002090016000915054906101000a900473ffffffffffffffffffffffffffffffffffffffff1681565b60036020528060005260406000206000915090508060000190806001019080600201908060030190806004019080600501905086565b60008060008673ffffffffffffffffffffffffffffffffffffffff1673ffffffffffffffffffffffffffffffffffffffff1681526020019081526020016000209050838160000190805190602001906110fc9291906111cc565b50828160010190805190602001906111159291906111cc565b508181600201908051906020019061112e9291906111cc565b506001808054806001018281611144919061124c565b9160005260206000209001600088909190916101000a81548173ffffffffffffffffffffffffffffffffffffffff021916908373ffffffffffffffffffffffffffffffffffffffff16021790555050505050505050565b6002602052806000526040600020600091509050806000019080600101908060020190806003019080600401905085565b828054600181600116156101000203166002900490600052602060002090601f016020900481019282601f1061120d57805160ff191683800117855561123b565b8280016001018555821561123b579182015b8281111561123a57825182559160200191906001019061121f565b5b5090506112489190611278565b5090565b815481835581811511611273578183600052602060002091820191016112729190611278565b5b505050565b61129a91905b8082111561129657600081600090555060010161127e565b5090565b905600a165627a7a723058204a16c1fc7a47c27b2ea6f452dad37c2d18eb8d79115ede7921fc634e3cb599930029",
  "source": "pragma solidity ^0.4.2;\r\n\r\n\r\ncontract Adoption {\r\n\r\n    struct Man {\r\n\r\n       // string hashcode;\r\n        //string id;\r\n        string f_name;\r\n        string l_name;\r\n        string email;\r\n    }\r\n\r\n    struct Man2 {\r\n        string b_day;\r\n        string gender;\r\n        string occupation;\r\n        string blood_group;\r\n        string marital_status;\r\n    }\r\n    \r\n    struct Man3 {\r\n        string state;\r\n        string city;\r\n        string country;\r\n        string home_address;\r\n        string current_address;\r\n        string phone_no;\r\n    }\r\n\r\n    mapping (address => Man) public Mans;\r\n    address[] public ManAccts;\r\n    //uint public count = 3;\r\n\r\n   // mapping (address => Man4) public Mans4;\r\n\r\n    mapping (address => Man2) public Mans2;\r\n\r\n    mapping (address => Man3) public Mans3;\r\n\r\n    function basic_details(address _address, string _f_name, string _l_name, string _email) public {\r\n      var man = Mans[_address];\r\n\r\n      man.f_name = _f_name;\r\n      man.l_name = _l_name;\r\n      man.email = _email;\r\n\r\n      ManAccts.push(_address)-1;\r\n    }\r\n\r\n    function personal_details(address _address, string _b_day, string _gender, string _occupation, string _blood_group, string _marital_status) public {\r\n      var man =Mans2[_address];\r\n\r\n      man.b_day= _b_day;\r\n      man.gender= _gender;\r\n      man.occupation = _occupation;\r\n      man.blood_group = _blood_group;\r\n      man.marital_status = _marital_status;\r\n\r\n      ManAccts.push(_address)-1;\r\n    }\r\n\r\n    function contact_details(address _address, string _home_address, string _current_address, string _country, string _state, string _city, string _phone_no) public {\r\n      var man = Mans3[_address];\r\n\r\n      man.home_address = _home_address;\r\n      man.current_address = _current_address;\r\n      man.country = _country;\r\n      man.state = _state;\r\n      man.city = _city;\r\n      man.phone_no = _phone_no;\r\n\r\n      ManAccts.push(_address)-1;\r\n\r\n    }\r\n   /* function saveHashcode(address _address, string _hashcode, string _id) public {\r\n\r\n      var man = Mans[_address];\r\n\r\n      man.hashcode = _hashcode;\r\n      man.id = _id;\r\n      ManAccts.push(_address)-1;\r\n\r\n    }*/\r\n\r\n\r\n    \r\n\r\n}",
  "sourcePath": "F:\\h\\contracts\\Adoption.sol",
  "compiler": {
    "name": "solc",
    "version": "0.4.18+commit.9cf6e910.Emscripten.clang"
  },
  "schemaVersion": "1.0.1",
  "updatedAt": "2018-03-23T06:01:34.957Z"
}