{
  "contractName": "Adoption",
  "abi": [
    {
      "constant": false,
      "inputs": [
        {
          "name": "_address",
          "type": "address"
        },
        {
          "name": "_home_address",
          "type": "string"
        },
        {
          "name": "_current_address",
          "type": "string"
        },
        {
          "name": "_country",
          "type": "string"
        },
        {
          "name": "_state",
          "type": "string"
        },
        {
          "name": "_city",
          "type": "string"
        },
        {
          "name": "_phone_no",
          "type": "string"
        }
      ],
      "name": "contact_details",
      "outputs": [],
      "payable": false,
      "stateMutability": "nonpayable",
      "type": "function"
    },
    {
      "constant": false,
      "inputs": [
        {
          "name": "_address",
          "type": "address"
        },
        {
          "name": "_b_day",
          "type": "string"
        },
        {
          "name": "_gender",
          "type": "string"
        },
        {
          "name": "_occupation",
          "type": "string"
        },
        {
          "name": "_blood_group",
          "type": "string"
        },
        {
          "name": "_marital_status",
          "type": "string"
        }
      ],
      "name": "personal_details",
      "outputs": [],
      "payable": false,
      "stateMutability": "nonpayable",
      "type": "function"
    },
    {
      "constant": true,
      "inputs": [
        {
          "name": "",
          "type": "address"
        }
      ],
      "name": "Mans",
      "outputs": [
        {
          "name": "f_name",
          "type": "string"
        },
        {
          "name": "l_name",
          "type": "string"
        },
        {
          "name": "email",
          "type": "string"
        }
      ],
      "payable": false,
      "stateMutability": "view",
      "type": "function"
    },
    {
      "constant": true,
      "inputs": [
        {
          "name": "",
          "type": "uint256"
        }
      ],
      "name": "ManAccts",
      "outputs": [
        {
          "name": "",
          "type": "address"
        }
      ],
      "payable": false,
      "stateMutability": "view",
      "type": "function"
    },
    {
      "constant": true,
      "inputs": [
        {
          "name": "",
          "type": "address"
        }
      ],
      "name": "voters",
      "outputs": [
        {
          "name": "",
          "type": "bool"
        }
      ],
      "payable": false,
      "stateMutability": "view",
      "type": "function"
    },
    {
      "constant": true,
      "inputs": [
        {
          "name": "",
          "type": "address"
        }
      ],
      "name": "Mans3",
      "outputs": [
        {
          "name": "state",
          "type": "string"
        },
        {
          "name": "city",
          "type": "string"
        },
        {
          "name": "country",
          "type": "string"
        },
        {
          "name": "home_address",
          "type": "string"
        },
        {
          "name": "current_address",
          "type": "string"
        },
        {
          "name": "phone_no",
          "type": "string"
        }
      ],
      "payable": false,
      "stateMutability": "view",
      "type": "function"
    },
    {
      "constant": false,
      "inputs": [
        {
          "name": "_address",
          "type": "address"
        },
        {
          "name": "_f_name",
          "type": "string"
        },
        {
          "name": "_l_name",
          "type": "string"
        },
        {
          "name": "_email",
          "type": "string"
        }
      ],
      "name": "basic_details",
      "outputs": [],
      "payable": false,
      "stateMutability": "nonpayable",
      "type": "function"
    },
    {
      "constant": true,
      "inputs": [
        {
          "name": "",
          "type": "address"
        }
      ],
      "name": "Mans2",
      "outputs": [
        {
          "name": "b_day",
          "type": "string"
        },
        {
          "name": "gender",
          "type": "string"
        },
        {
          "name": "occupation",
          "type": "string"
        },
        {
          "name": "blood_group",
          "type": "string"
        },
        {
          "name": "marital_status",
          "type": "string"
        }
      ],
      "payable": false,
      "stateMutability": "view",
      "type": "function"
    }
  ],
  "bytecode": "0x6060604052341561000f57600080fd5b6113f68061001e6000396000f30060606040526004361061008e576000357c0100000000000000000000000000000000000000000000000000000000900463ffffffff1680632568064d1461009357806397bd94081461025e57806398f27e45146103e65780639d129cf4146105c7578063a3ec138d1461062a578063adf52e151461067b578063e3196f8a146109f7578063f195e5b414610af9575b600080fd5b341561009e57600080fd5b61025c600480803573ffffffffffffffffffffffffffffffffffffffff1690602001909190803590602001908201803590602001908080601f0160208091040260200160405190810160405280939291908181526020018383808284378201915050505050509190803590602001908201803590602001908080601f0160208091040260200160405190810160405280939291908181526020018383808284378201915050505050509190803590602001908201803590602001908080601f0160208091040260200160405190810160405280939291908181526020018383808284378201915050505050509190803590602001908201803590602001908080601f0160208091040260200160405190810160405280939291908181526020018383808284378201915050505050509190803590602001908201803590602001908080601f0160208091040260200160405190810160405280939291908181526020018383808284378201915050505050509190803590602001908201803590602001908080601f01602080910402602001604051908101604052809392919081815260200183838082843782019150505050505091905050610dec565b005b341561026957600080fd5b6103e4600480803573ffffffffffffffffffffffffffffffffffffffff1690602001909190803590602001908201803590602001908080601f0160208091040260200160405190810160405280939291908181526020018383808284378201915050505050509190803590602001908201803590602001908080601f0160208091040260200160405190810160405280939291908181526020018383808284378201915050505050509190803590602001908201803590602001908080601f0160208091040260200160405190810160405280939291908181526020018383808284378201915050505050509190803590602001908201803590602001908080601f0160208091040260200160405190810160405280939291908181526020018383808284378201915050505050509190803590602001908201803590602001908080601f01602080910402602001604051908101604052809392919081815260200183838082843782019150505050505091905050610f34565b005b34156103f157600080fd5b61041d600480803573ffffffffffffffffffffffffffffffffffffffff16906020019091905050611062565b604051808060200180602001806020018481038452878181546001816001161561010002031660029004815260200191508054600181600116156101000203166002900480156104ae5780601f10610483576101008083540402835291602001916104ae565b820191906000526020600020905b81548152906001019060200180831161049157829003601f168201915b50508481038352868181546001816001161561010002031660029004815260200191508054600181600116156101000203166002900480156105315780601f1061050657610100808354040283529160200191610531565b820191906000526020600020905b81548152906001019060200180831161051457829003601f168201915b50508481038252858181546001816001161561010002031660029004815260200191508054600181600116156101000203166002900480156105b45780601f10610589576101008083540402835291602001916105b4565b820191906000526020600020905b81548152906001019060200180831161059757829003601f168201915b5050965050505050505060405180910390f35b34156105d257600080fd5b6105e86004808035906020019091905050611089565b604051808273ffffffffffffffffffffffffffffffffffffffff1673ffffffffffffffffffffffffffffffffffffffff16815260200191505060405180910390f35b341561063557600080fd5b610661600480803573ffffffffffffffffffffffffffffffffffffffff169060200190919050506110c8565b604051808215151515815260200191505060405180910390f35b341561068657600080fd5b6106b2600480803573ffffffffffffffffffffffffffffffffffffffff169060200190919050506110e8565b6040518080602001806020018060200180602001806020018060200187810387528d81815460018160011615610100020316600290048152602001915080546001816001161561010002031660029004801561074f5780601f106107245761010080835404028352916020019161074f565b820191906000526020600020905b81548152906001019060200180831161073257829003601f168201915b505087810386528c8181546001816001161561010002031660029004815260200191508054600181600116156101000203166002900480156107d25780601f106107a7576101008083540402835291602001916107d2565b820191906000526020600020905b8154815290600101906020018083116107b557829003601f168201915b505087810385528b8181546001816001161561010002031660029004815260200191508054600181600116156101000203166002900480156108555780601f1061082a57610100808354040283529160200191610855565b820191906000526020600020905b81548152906001019060200180831161083857829003601f168201915b505087810384528a8181546001816001161561010002031660029004815260200191508054600181600116156101000203166002900480156108d85780601f106108ad576101008083540402835291602001916108d8565b820191906000526020600020905b8154815290600101906020018083116108bb57829003601f168201915b505087810383528981815460018160011615610100020316600290048152602001915080546001816001161561010002031660029004801561095b5780601f106109305761010080835404028352916020019161095b565b820191906000526020600020905b81548152906001019060200180831161093e57829003601f168201915b50508781038252888181546001816001161561010002031660029004815260200191508054600181600116156101000203166002900480156109de5780601f106109b3576101008083540402835291602001916109de565b820191906000526020600020905b8154815290600101906020018083116109c157829003601f168201915b50509c5050505050505050505050505060405180910390f35b3415610a0257600080fd5b610af7600480803573ffffffffffffffffffffffffffffffffffffffff1690602001909190803590602001908201803590602001908080601f0160208091040260200160405190810160405280939291908181526020018383808284378201915050505050509190803590602001908201803590602001908080601f0160208091040260200160405190810160405280939291908181526020018383808284378201915050505050509190803590602001908201803590602001908080601f0160208091040260200160405190810160405280939291908181526020018383808284378201915050505050509190505061111e565b005b3415610b0457600080fd5b610b30600480803573ffffffffffffffffffffffffffffffffffffffff169060200190919050506112c8565b60405180806020018060200180602001806020018060200186810386528b818154600181600116156101000203166002900481526020019150805460018160011615610100020316600290048015610bc95780601f10610b9e57610100808354040283529160200191610bc9565b820191906000526020600020905b815481529060010190602001808311610bac57829003601f168201915b505086810385528a818154600181600116156101000203166002900481526020019150805460018160011615610100020316600290048015610c4c5780601f10610c2157610100808354040283529160200191610c4c565b820191906000526020600020905b815481529060010190602001808311610c2f57829003601f168201915b5050868103845289818154600181600116156101000203166002900481526020019150805460018160011615610100020316600290048015610ccf5780601f10610ca457610100808354040283529160200191610ccf565b820191906000526020600020905b815481529060010190602001808311610cb257829003601f168201915b5050868103835288818154600181600116156101000203166002900481526020019150805460018160011615610100020316600290048015610d525780601f10610d2757610100808354040283529160200191610d52565b820191906000526020600020905b815481529060010190602001808311610d3557829003601f168201915b5050868103825287818154600181600116156101000203166002900481526020019150805460018160011615610100020316600290048015610dd55780601f10610daa57610100808354040283529160200191610dd5565b820191906000526020600020905b815481529060010190602001808311610db857829003601f168201915b50509a505050505050505050505060405180910390f35b6000600360008973ffffffffffffffffffffffffffffffffffffffff1673ffffffffffffffffffffffffffffffffffffffff168152602001908152602001600020905086816003019080519060200190610e479291906112f9565b5085816004019080519060200190610e609291906112f9565b5084816002019080519060200190610e799291906112f9565b5083816000019080519060200190610e929291906112f9565b5082816001019080519060200190610eab9291906112f9565b5081816005019080519060200190610ec49291906112f9565b506001808054806001018281610eda9190611379565b916000526020600020900160008b909190916101000a81548173ffffffffffffffffffffffffffffffffffffffff021916908373ffffffffffffffffffffffffffffffffffffffff16021790555050505050505050505050565b6000600260008873ffffffffffffffffffffffffffffffffffffffff1673ffffffffffffffffffffffffffffffffffffffff168152602001908152602001600020905085816000019080519060200190610f8f9291906112f9565b5084816001019080519060200190610fa89291906112f9565b5083816002019080519060200190610fc19291906112f9565b5082816003019080519060200190610fda9291906112f9565b5081816004019080519060200190610ff39291906112f9565b5060018080548060010182816110099190611379565b916000526020600020900160008a909190916101000a81548173ffffffffffffffffffffffffffffffffffffffff021916908373ffffffffffffffffffffffffffffffffffffffff160217905550505050505050505050565b60006020528060005260406000206000915090508060000190806001019080600201905083565b60018181548110151561109857fe5b90600052602060002090016000915054906101000a900473ffffffffffffffffffffffffffffffffffffffff1681565b60046020528060005260406000206000915054906101000a900460ff1681565b60036020528060005260406000206000915090508060000190806001019080600201908060030190806004019080600501905086565b6000600460008673ffffffffffffffffffffffffffffffffffffffff1673ffffffffffffffffffffffffffffffffffffffff16815260200190815260200160002060009054906101000a900460ff1615151561117957600080fd5b6001600460008773ffffffffffffffffffffffffffffffffffffffff1673ffffffffffffffffffffffffffffffffffffffff16815260200190815260200160002060006101000a81548160ff0219169083151502179055506000808673ffffffffffffffffffffffffffffffffffffffff1673ffffffffffffffffffffffffffffffffffffffff1681526020019081526020016000209050838160000190805190602001906112299291906112f9565b50828160010190805190602001906112429291906112f9565b508181600201908051906020019061125b9291906112f9565b5060018080548060010182816112719190611379565b9160005260206000209001600088909190916101000a81548173ffffffffffffffffffffffffffffffffffffffff021916908373ffffffffffffffffffffffffffffffffffffffff16021790555050505050505050565b6002602052806000526040600020600091509050806000019080600101908060020190806003019080600401905085565b828054600181600116156101000203166002900490600052602060002090601f016020900481019282601f1061133a57805160ff1916838001178555611368565b82800160010185558215611368579182015b8281111561136757825182559160200191906001019061134c565b5b50905061137591906113a5565b5090565b8154818355818115116113a05781836000526020600020918201910161139f91906113a5565b5b505050565b6113c791905b808211156113c35760008160009055506001016113ab565b5090565b905600a165627a7a72305820f69c553596c5fb5f1ad1d0dcf54e1c978605e9f8445c6da3b7216e72de85d2800029",
  "source": "pragma solidity ^0.4.2;\r\n\r\n\r\ncontract Adoption {\r\n\r\n    struct Man {\r\n\r\n       // string hashcode;\r\n        //string id;\r\n        string f_name;\r\n        string l_name;\r\n        string email;\r\n    }\r\n\r\n    struct Man2 {\r\n        string b_day;\r\n        string gender;\r\n        string occupation;\r\n        string blood_group;\r\n        string marital_status;\r\n    }\r\n\r\n    struct Man3 {\r\n        string state;\r\n        string city;\r\n        string country;\r\n        string home_address;\r\n        string current_address;\r\n        string phone_no;\r\n    }\r\n\r\n    // struct Man4 {\r\n    //     string s;\r\n    // }\r\n\r\n    mapping (address => Man) public Mans;\r\n    address[] public ManAccts;\r\n\r\n    mapping (address => Man2) public Mans2;\r\n\r\n    mapping (address => Man3) public Mans3;\r\n\r\n    mapping (address => bool) public voters;\r\n\r\n    // mapping (address => Man4) public Mans4;\r\n\r\n    // function symtoms(address _address, string _s) {\r\n\r\n    //   var man = Mans4[_address];\r\n\r\n      \r\n      \r\n    //   ManAccts.push(_address)-1;\r\n    // }\r\n\r\n    function basic_details(address _address, string _f_name, string _l_name, string _email) public {\r\n      \r\n      require(!voters[_address]);\r\n      voters[_address] = true;\r\n      \r\n      var man = Mans[_address];\r\n\r\n      man.f_name = _f_name;\r\n      man.l_name = _l_name;\r\n      man.email = _email;\r\n\r\n      ManAccts.push(_address)-1;\r\n    }\r\n\r\n    function personal_details(address _address, string _b_day, string _gender, string _occupation, string _blood_group, string _marital_status) public {\r\n      var man =Mans2[_address];\r\n\r\n      man.b_day= _b_day;\r\n      man.gender= _gender;\r\n      man.occupation = _occupation;\r\n      man.blood_group = _blood_group;\r\n      man.marital_status = _marital_status;\r\n\r\n      ManAccts.push(_address)-1;\r\n    }\r\n\r\n    function contact_details(address _address, string _home_address, string _current_address, string _country, string _state, string _city, string _phone_no) public {\r\n      var man = Mans3[_address];\r\n\r\n      man.home_address = _home_address;\r\n      man.current_address = _current_address;\r\n      man.country = _country;\r\n      man.state = _state;\r\n      man.city = _city;\r\n      man.phone_no = _phone_no;\r\n\r\n      ManAccts.push(_address)-1;\r\n\r\n    }\r\n   /* function saveHashcode(address _address, string _hashcode, string _id) public {\r\n\r\n      var man = Mans[_address];\r\n\r\n      man.hashcode = _hashcode;\r\n      man.id = _id;\r\n      ManAccts.push(_address)-1;\r\n\r\n    }*/\r\n\r\n\r\n\r\n\r\n}\r\n",
  "sourcePath": "F:\\h\\contracts\\Adoption.sol",
  "compiler": {
    "name": "solc",
    "version": "0.4.18+commit.9cf6e910.Emscripten.clang"
  },
  "schemaVersion": "1.0.1",
  "updatedAt": "2018-03-25T07:36:32.325Z"
}