{
  "contractName": "Adoption",
  "abi": [
    {
      "constant": false,
      "inputs": [
        {
          "name": "_address",
          "type": "address"
        },
        {
          "name": "_home_address",
          "type": "string"
        },
        {
          "name": "_current_address",
          "type": "string"
        },
        {
          "name": "_country",
          "type": "string"
        },
        {
          "name": "_state",
          "type": "string"
        },
        {
          "name": "_city",
          "type": "string"
        },
        {
          "name": "_phone_no",
          "type": "string"
        }
      ],
      "name": "contact_details",
      "outputs": [],
      "payable": false,
      "stateMutability": "nonpayable",
      "type": "function"
    },
    {
      "constant": true,
      "inputs": [
        {
          "name": "",
          "type": "address"
        }
      ],
      "name": "Mans4",
      "outputs": [
        {
          "name": "s",
          "type": "string"
        }
      ],
      "payable": false,
      "stateMutability": "view",
      "type": "function"
    },
    {
      "constant": false,
      "inputs": [
        {
          "name": "_address",
          "type": "address"
        },
        {
          "name": "_b_day",
          "type": "string"
        },
        {
          "name": "_gender",
          "type": "string"
        },
        {
          "name": "_occupation",
          "type": "string"
        },
        {
          "name": "_blood_group",
          "type": "string"
        },
        {
          "name": "_marital_status",
          "type": "string"
        }
      ],
      "name": "personal_details",
      "outputs": [],
      "payable": false,
      "stateMutability": "nonpayable",
      "type": "function"
    },
    {
      "constant": true,
      "inputs": [
        {
          "name": "",
          "type": "address"
        }
      ],
      "name": "Mans",
      "outputs": [
        {
          "name": "f_name",
          "type": "string"
        },
        {
          "name": "l_name",
          "type": "string"
        },
        {
          "name": "email",
          "type": "string"
        }
      ],
      "payable": false,
      "stateMutability": "view",
      "type": "function"
    },
    {
      "constant": true,
      "inputs": [
        {
          "name": "",
          "type": "uint256"
        }
      ],
      "name": "ManAccts",
      "outputs": [
        {
          "name": "",
          "type": "address"
        }
      ],
      "payable": false,
      "stateMutability": "view",
      "type": "function"
    },
    {
      "constant": true,
      "inputs": [
        {
          "name": "",
          "type": "address"
        }
      ],
      "name": "Mans3",
      "outputs": [
        {
          "name": "state",
          "type": "string"
        },
        {
          "name": "city",
          "type": "string"
        },
        {
          "name": "country",
          "type": "string"
        },
        {
          "name": "home_address",
          "type": "string"
        },
        {
          "name": "current_address",
          "type": "string"
        },
        {
          "name": "phone_no",
          "type": "string"
        }
      ],
      "payable": false,
      "stateMutability": "view",
      "type": "function"
    },
    {
      "constant": false,
      "inputs": [
        {
          "name": "_address",
          "type": "address"
        },
        {
          "name": "_s",
          "type": "string"
        }
      ],
      "name": "symtoms",
      "outputs": [],
      "payable": false,
      "stateMutability": "nonpayable",
      "type": "function"
    },
    {
      "constant": false,
      "inputs": [
        {
          "name": "_address",
          "type": "address"
        },
        {
          "name": "_f_name",
          "type": "string"
        },
        {
          "name": "_l_name",
          "type": "string"
        },
        {
          "name": "_email",
          "type": "string"
        }
      ],
      "name": "basic_details",
      "outputs": [],
      "payable": false,
      "stateMutability": "nonpayable",
      "type": "function"
    },
    {
      "constant": true,
      "inputs": [
        {
          "name": "",
          "type": "address"
        }
      ],
      "name": "Mans2",
      "outputs": [
        {
          "name": "b_day",
          "type": "string"
        },
        {
          "name": "gender",
          "type": "string"
        },
        {
          "name": "occupation",
          "type": "string"
        },
        {
          "name": "blood_group",
          "type": "string"
        },
        {
          "name": "marital_status",
          "type": "string"
        }
      ],
      "payable": false,
      "stateMutability": "view",
      "type": "function"
    }
  ],
  "bytecode": "0x6060604052341561000f57600080fd5b61150d8061001e6000396000f300606060405260043610610099576000357c0100000000000000000000000000000000000000000000000000000000900463ffffffff1680632568064d1461009e578063830c0c871461026957806397bd94081461033857806398f27e45146104c05780639d129cf4146106a1578063adf52e1514610704578063c957a64e14610a80578063e3196f8a14610afc578063f195e5b414610bfe575b600080fd5b34156100a957600080fd5b610267600480803573ffffffffffffffffffffffffffffffffffffffff1690602001909190803590602001908201803590602001908080601f0160208091040260200160405190810160405280939291908181526020018383808284378201915050505050509190803590602001908201803590602001908080601f0160208091040260200160405190810160405280939291908181526020018383808284378201915050505050509190803590602001908201803590602001908080601f0160208091040260200160405190810160405280939291908181526020018383808284378201915050505050509190803590602001908201803590602001908080601f0160208091040260200160405190810160405280939291908181526020018383808284378201915050505050509190803590602001908201803590602001908080601f0160208091040260200160405190810160405280939291908181526020018383808284378201915050505050509190803590602001908201803590602001908080601f01602080910402602001604051908101604052809392919081815260200183838082843782019150505050505091905050610ef1565b005b341561027457600080fd5b6102a0600480803573ffffffffffffffffffffffffffffffffffffffff16906020019091905050611039565b60405180806020018281038252838181546001816001161561010002031660029004815260200191508054600181600116156101000203166002900480156103295780601f106102fe57610100808354040283529160200191610329565b820191906000526020600020905b81548152906001019060200180831161030c57829003601f168201915b50509250505060405180910390f35b341561034357600080fd5b6104be600480803573ffffffffffffffffffffffffffffffffffffffff1690602001909190803590602001908201803590602001908080601f0160208091040260200160405190810160405280939291908181526020018383808284378201915050505050509190803590602001908201803590602001908080601f0160208091040260200160405190810160405280939291908181526020018383808284378201915050505050509190803590602001908201803590602001908080601f0160208091040260200160405190810160405280939291908181526020018383808284378201915050505050509190803590602001908201803590602001908080601f0160208091040260200160405190810160405280939291908181526020018383808284378201915050505050509190803590602001908201803590602001908080601f01602080910402602001604051908101604052809392919081815260200183838082843782019150505050505091905050611056565b005b34156104cb57600080fd5b6104f7600480803573ffffffffffffffffffffffffffffffffffffffff16906020019091905050611184565b604051808060200180602001806020018481038452878181546001816001161561010002031660029004815260200191508054600181600116156101000203166002900480156105885780601f1061055d57610100808354040283529160200191610588565b820191906000526020600020905b81548152906001019060200180831161056b57829003601f168201915b505084810383528681815460018160011615610100020316600290048152602001915080546001816001161561010002031660029004801561060b5780601f106105e05761010080835404028352916020019161060b565b820191906000526020600020905b8154815290600101906020018083116105ee57829003601f168201915b505084810382528581815460018160011615610100020316600290048152602001915080546001816001161561010002031660029004801561068e5780601f106106635761010080835404028352916020019161068e565b820191906000526020600020905b81548152906001019060200180831161067157829003601f168201915b5050965050505050505060405180910390f35b34156106ac57600080fd5b6106c260048080359060200190919050506111ab565b604051808273ffffffffffffffffffffffffffffffffffffffff1673ffffffffffffffffffffffffffffffffffffffff16815260200191505060405180910390f35b341561070f57600080fd5b61073b600480803573ffffffffffffffffffffffffffffffffffffffff169060200190919050506111ea565b6040518080602001806020018060200180602001806020018060200187810387528d8181546001816001161561010002031660029004815260200191508054600181600116156101000203166002900480156107d85780601f106107ad576101008083540402835291602001916107d8565b820191906000526020600020905b8154815290600101906020018083116107bb57829003601f168201915b505087810386528c81815460018160011615610100020316600290048152602001915080546001816001161561010002031660029004801561085b5780601f106108305761010080835404028352916020019161085b565b820191906000526020600020905b81548152906001019060200180831161083e57829003601f168201915b505087810385528b8181546001816001161561010002031660029004815260200191508054600181600116156101000203166002900480156108de5780601f106108b3576101008083540402835291602001916108de565b820191906000526020600020905b8154815290600101906020018083116108c157829003601f168201915b505087810384528a8181546001816001161561010002031660029004815260200191508054600181600116156101000203166002900480156109615780601f1061093657610100808354040283529160200191610961565b820191906000526020600020905b81548152906001019060200180831161094457829003601f168201915b50508781038352898181546001816001161561010002031660029004815260200191508054600181600116156101000203166002900480156109e45780601f106109b9576101008083540402835291602001916109e4565b820191906000526020600020905b8154815290600101906020018083116109c757829003601f168201915b5050878103825288818154600181600116156101000203166002900481526020019150805460018160011615610100020316600290048015610a675780601f10610a3c57610100808354040283529160200191610a67565b820191906000526020600020905b815481529060010190602001808311610a4a57829003601f168201915b50509c5050505050505050505050505060405180910390f35b3415610a8b57600080fd5b610afa600480803573ffffffffffffffffffffffffffffffffffffffff1690602001909190803590602001908201803590602001908080601f01602080910402602001604051908101604052809392919081815260200183838082843782019150505050505091905050611220565b005b3415610b0757600080fd5b610bfc600480803573ffffffffffffffffffffffffffffffffffffffff1690602001909190803590602001908201803590602001908080601f0160208091040260200160405190810160405280939291908181526020018383808284378201915050505050509190803590602001908201803590602001908080601f0160208091040260200160405190810160405280939291908181526020018383808284378201915050505050509190803590602001908201803590602001908080601f016020809104026020016040519081016040528093929190818152602001838380828437820191505050505050919050506112e6565b005b3415610c0957600080fd5b610c35600480803573ffffffffffffffffffffffffffffffffffffffff169060200190919050506113df565b60405180806020018060200180602001806020018060200186810386528b818154600181600116156101000203166002900481526020019150805460018160011615610100020316600290048015610cce5780601f10610ca357610100808354040283529160200191610cce565b820191906000526020600020905b815481529060010190602001808311610cb157829003601f168201915b505086810385528a818154600181600116156101000203166002900481526020019150805460018160011615610100020316600290048015610d515780601f10610d2657610100808354040283529160200191610d51565b820191906000526020600020905b815481529060010190602001808311610d3457829003601f168201915b5050868103845289818154600181600116156101000203166002900481526020019150805460018160011615610100020316600290048015610dd45780601f10610da957610100808354040283529160200191610dd4565b820191906000526020600020905b815481529060010190602001808311610db757829003601f168201915b5050868103835288818154600181600116156101000203166002900481526020019150805460018160011615610100020316600290048015610e575780601f10610e2c57610100808354040283529160200191610e57565b820191906000526020600020905b815481529060010190602001808311610e3a57829003601f168201915b5050868103825287818154600181600116156101000203166002900481526020019150805460018160011615610100020316600290048015610eda5780601f10610eaf57610100808354040283529160200191610eda565b820191906000526020600020905b815481529060010190602001808311610ebd57829003601f168201915b50509a505050505050505050505060405180910390f35b6000600360008973ffffffffffffffffffffffffffffffffffffffff1673ffffffffffffffffffffffffffffffffffffffff168152602001908152602001600020905086816003019080519060200190610f4c929190611410565b5085816004019080519060200190610f65929190611410565b5084816002019080519060200190610f7e929190611410565b5083816000019080519060200190610f97929190611410565b5082816001019080519060200190610fb0929190611410565b5081816005019080519060200190610fc9929190611410565b506001808054806001018281610fdf9190611490565b916000526020600020900160008b909190916101000a81548173ffffffffffffffffffffffffffffffffffffffff021916908373ffffffffffffffffffffffffffffffffffffffff16021790555050505050505050505050565b600460205280600052604060002060009150905080600001905081565b6000600260008873ffffffffffffffffffffffffffffffffffffffff1673ffffffffffffffffffffffffffffffffffffffff1681526020019081526020016000209050858160000190805190602001906110b1929190611410565b50848160010190805190602001906110ca929190611410565b50838160020190805190602001906110e3929190611410565b50828160030190805190602001906110fc929190611410565b5081816004019080519060200190611115929190611410565b50600180805480600101828161112b9190611490565b916000526020600020900160008a909190916101000a81548173ffffffffffffffffffffffffffffffffffffffff021916908373ffffffffffffffffffffffffffffffffffffffff160217905550505050505050505050565b60006020528060005260406000206000915090508060000190806001019080600201905083565b6001818154811015156111ba57fe5b90600052602060002090016000915054906101000a900473ffffffffffffffffffffffffffffffffffffffff1681565b60036020528060005260406000206000915090508060000190806001019080600201908060030190806004019080600501905086565b6000600460008473ffffffffffffffffffffffffffffffffffffffff1673ffffffffffffffffffffffffffffffffffffffff16815260200190815260200160002090508181600001908051906020019061127b929190611410565b5060018080548060010182816112919190611490565b9160005260206000209001600086909190916101000a81548173ffffffffffffffffffffffffffffffffffffffff021916908373ffffffffffffffffffffffffffffffffffffffff1602179055505050505050565b60008060008673ffffffffffffffffffffffffffffffffffffffff1673ffffffffffffffffffffffffffffffffffffffff168152602001908152602001600020905083816000019080519060200190611340929190611410565b5082816001019080519060200190611359929190611410565b5081816002019080519060200190611372929190611410565b5060018080548060010182816113889190611490565b9160005260206000209001600088909190916101000a81548173ffffffffffffffffffffffffffffffffffffffff021916908373ffffffffffffffffffffffffffffffffffffffff16021790555050505050505050565b6002602052806000526040600020600091509050806000019080600101908060020190806003019080600401905085565b828054600181600116156101000203166002900490600052602060002090601f016020900481019282601f1061145157805160ff191683800117855561147f565b8280016001018555821561147f579182015b8281111561147e578251825591602001919060010190611463565b5b50905061148c91906114bc565b5090565b8154818355818115116114b7578183600052602060002091820191016114b691906114bc565b5b505050565b6114de91905b808211156114da5760008160009055506001016114c2565b5090565b905600a165627a7a7230582001bafa91e02f802a745a0ac92ba0371b0a52c0b498b98966346dd4c65ce927a70029",
  "source": "pragma solidity ^0.4.2;\r\n\r\n\r\ncontract Adoption {\r\n\r\n    struct Man {\r\n\r\n       // string hashcode;\r\n        //string id;\r\n        string f_name;\r\n        string l_name;\r\n        string email;\r\n    }\r\n\r\n    struct Man2 {\r\n        string b_day;\r\n        string gender;\r\n        string occupation;\r\n        string blood_group;\r\n        string marital_status;\r\n    }\r\n\r\n    struct Man3 {\r\n        string state;\r\n        string city;\r\n        string country;\r\n        string home_address;\r\n        string current_address;\r\n        string phone_no;\r\n    }\r\n\r\n     struct Man4 {\r\n        string s;\r\n    }\r\n\r\n    mapping (address => Man) public Mans;\r\n    address[] public ManAccts;\r\n\r\n    mapping (address => Man2) public Mans2;\r\n\r\n    mapping (address => Man3) public Mans3;\r\n\r\n    mapping (address => Man4) public Mans4;\r\n\r\n    function symtoms(address _address, string _s) {\r\n\r\n      var man = Mans4[_address];\r\n\r\n      man.s = _s;\r\n      \r\n      ManAccts.push(_address)-1;\r\n    }\r\n\r\n    function basic_details(address _address, string _f_name, string _l_name, string _email) public {\r\n      var man = Mans[_address];\r\n\r\n      man.f_name = _f_name;\r\n      man.l_name = _l_name;\r\n      man.email = _email;\r\n\r\n      ManAccts.push(_address)-1;\r\n    }\r\n\r\n    function personal_details(address _address, string _b_day, string _gender, string _occupation, string _blood_group, string _marital_status) public {\r\n      var man =Mans2[_address];\r\n\r\n      man.b_day= _b_day;\r\n      man.gender= _gender;\r\n      man.occupation = _occupation;\r\n      man.blood_group = _blood_group;\r\n      man.marital_status = _marital_status;\r\n\r\n      ManAccts.push(_address)-1;\r\n    }\r\n\r\n    function contact_details(address _address, string _home_address, string _current_address, string _country, string _state, string _city, string _phone_no) public {\r\n      var man = Mans3[_address];\r\n\r\n      man.home_address = _home_address;\r\n      man.current_address = _current_address;\r\n      man.country = _country;\r\n      man.state = _state;\r\n      man.city = _city;\r\n      man.phone_no = _phone_no;\r\n\r\n      ManAccts.push(_address)-1;\r\n\r\n    }\r\n   /* function saveHashcode(address _address, string _hashcode, string _id) public {\r\n\r\n      var man = Mans[_address];\r\n\r\n      man.hashcode = _hashcode;\r\n      man.id = _id;\r\n      ManAccts.push(_address)-1;\r\n\r\n    }*/\r\n\r\n\r\n\r\n\r\n}\r\n",
  "sourcePath": "F:\\h\\contracts\\Adoption.sol",
  "compiler": {
    "name": "solc",
    "version": "0.4.18+commit.9cf6e910.Emscripten.clang"
  },
  "schemaVersion": "1.0.1",
  "updatedAt": "2018-03-24T18:35:34.457Z"
}