{
  "contractName": "Adoption",
  "abi": [
    {
      "constant": false,
      "inputs": [
        {
          "name": "_address",
          "type": "address"
        },
        {
          "name": "_home_address",
          "type": "string"
        },
        {
          "name": "_current_address",
          "type": "string"
        },
        {
          "name": "_country",
          "type": "string"
        },
        {
          "name": "_state",
          "type": "string"
        },
        {
          "name": "_city",
          "type": "string"
        },
        {
          "name": "_phone_no",
          "type": "string"
        }
      ],
      "name": "contact_details",
      "outputs": [],
      "payable": false,
      "stateMutability": "nonpayable",
      "type": "function"
    },
    {
      "constant": false,
      "inputs": [
        {
          "name": "challenge",
          "type": "string"
        }
      ],
      "name": "login",
      "outputs": [],
      "payable": false,
      "stateMutability": "nonpayable",
      "type": "function"
    },
    {
      "constant": true,
      "inputs": [
        {
          "name": "_address",
          "type": "address"
        }
      ],
      "name": "getHashcode",
      "outputs": [
        {
          "name": "",
          "type": "string"
        }
      ],
      "payable": false,
      "stateMutability": "view",
      "type": "function"
    },
    {
      "constant": false,
      "inputs": [
        {
          "name": "_address",
          "type": "address"
        },
        {
          "name": "_hashcode",
          "type": "string"
        },
        {
          "name": "_id",
          "type": "string"
        }
      ],
      "name": "saveHashcode",
      "outputs": [],
      "payable": false,
      "stateMutability": "nonpayable",
      "type": "function"
    },
    {
      "constant": false,
      "inputs": [
        {
          "name": "_address",
          "type": "address"
        },
        {
          "name": "_b_day",
          "type": "string"
        },
        {
          "name": "_gender",
          "type": "string"
        },
        {
          "name": "_occupation",
          "type": "string"
        },
        {
          "name": "_blood_group",
          "type": "string"
        },
        {
          "name": "_marital_status",
          "type": "string"
        }
      ],
      "name": "personal_details",
      "outputs": [],
      "payable": false,
      "stateMutability": "nonpayable",
      "type": "function"
    },
    {
      "constant": true,
      "inputs": [
        {
          "name": "",
          "type": "address"
        }
      ],
      "name": "Mans",
      "outputs": [
        {
          "name": "hashcode",
          "type": "string"
        },
        {
          "name": "id",
          "type": "string"
        },
        {
          "name": "f_name",
          "type": "string"
        },
        {
          "name": "l_name",
          "type": "string"
        },
        {
          "name": "email",
          "type": "string"
        }
      ],
      "payable": false,
      "stateMutability": "view",
      "type": "function"
    },
    {
      "constant": true,
      "inputs": [
        {
          "name": "",
          "type": "uint256"
        }
      ],
      "name": "ManAccts",
      "outputs": [
        {
          "name": "",
          "type": "address"
        }
      ],
      "payable": false,
      "stateMutability": "view",
      "type": "function"
    },
    {
      "constant": true,
      "inputs": [
        {
          "name": "",
          "type": "address"
        }
      ],
      "name": "Mans3",
      "outputs": [
        {
          "name": "state",
          "type": "string"
        },
        {
          "name": "city",
          "type": "string"
        },
        {
          "name": "country",
          "type": "string"
        },
        {
          "name": "home_address",
          "type": "string"
        },
        {
          "name": "current_address",
          "type": "string"
        },
        {
          "name": "phone_no",
          "type": "string"
        }
      ],
      "payable": false,
      "stateMutability": "view",
      "type": "function"
    },
    {
      "constant": true,
      "inputs": [
        {
          "name": "",
          "type": "address"
        }
      ],
      "name": "Mans2",
      "outputs": [
        {
          "name": "b_day",
          "type": "string"
        },
        {
          "name": "gender",
          "type": "string"
        },
        {
          "name": "occupation",
          "type": "string"
        },
        {
          "name": "blood_group",
          "type": "string"
        },
        {
          "name": "marital_status",
          "type": "string"
        }
      ],
      "payable": false,
      "stateMutability": "view",
      "type": "function"
    },
    {
      "anonymous": false,
      "inputs": [
        {
          "indexed": false,
          "name": "sender",
          "type": "address"
        },
        {
          "indexed": false,
          "name": "challenge",
          "type": "string"
        }
      ],
      "name": "LoginAttempt",
      "type": "event"
    }
  ],
  "bytecode": "0x6060604052341561000f57600080fd5b61167d8061001e6000396000f300606060405260043610610099576000357c0100000000000000000000000000000000000000000000000000000000900463ffffffff1680632568064d1461009e5780633a7d280c1461026957806345dd9850146102c657806377b601711461037857806397bd94081461043757806398f27e45146105bf5780639d129cf4146108b2578063adf52e1514610915578063f195e5b414610c91575b600080fd5b34156100a957600080fd5b610267600480803573ffffffffffffffffffffffffffffffffffffffff1690602001909190803590602001908201803590602001908080601f0160208091040260200160405190810160405280939291908181526020018383808284378201915050505050509190803590602001908201803590602001908080601f0160208091040260200160405190810160405280939291908181526020018383808284378201915050505050509190803590602001908201803590602001908080601f0160208091040260200160405190810160405280939291908181526020018383808284378201915050505050509190803590602001908201803590602001908080601f0160208091040260200160405190810160405280939291908181526020018383808284378201915050505050509190803590602001908201803590602001908080601f0160208091040260200160405190810160405280939291908181526020018383808284378201915050505050509190803590602001908201803590602001908080601f01602080910402602001604051908101604052809392919081815260200183838082843782019150505050505091905050610f84565b005b341561027457600080fd5b6102c4600480803590602001908201803590602001908080601f016020809104026020016040519081016040528093929190818152602001838380828437820191505050505050919050506110cc565b005b34156102d157600080fd5b6102fd600480803573ffffffffffffffffffffffffffffffffffffffff1690602001909190505061119f565b6040518080602001828103825283818151815260200191508051906020019080838360005b8381101561033d578082015181840152602081019050610322565b50505050905090810190601f16801561036a5780820380516001836020036101000a031916815260200191505b509250505060405180910390f35b341561038357600080fd5b610435600480803573ffffffffffffffffffffffffffffffffffffffff1690602001909190803590602001908201803590602001908080601f0160208091040260200160405190810160405280939291908181526020018383808284378201915050505050509190803590602001908201803590602001908080601f01602080910402602001604051908101604052809392919081815260200183838082843782019150505050505091905050611288565b005b341561044257600080fd5b6105bd600480803573ffffffffffffffffffffffffffffffffffffffff1690602001909190803590602001908201803590602001908080601f0160208091040260200160405190810160405280939291908181526020018383808284378201915050505050509190803590602001908201803590602001908080601f0160208091040260200160405190810160405280939291908181526020018383808284378201915050505050509190803590602001908201803590602001908080601f0160208091040260200160405190810160405280939291908181526020018383808284378201915050505050509190803590602001908201803590602001908080601f0160208091040260200160405190810160405280939291908181526020018383808284378201915050505050509190803590602001908201803590602001908080601f01602080910402602001604051908101604052809392919081815260200183838082843782019150505050505091905050611367565b005b34156105ca57600080fd5b6105f6600480803573ffffffffffffffffffffffffffffffffffffffff16906020019091905050611495565b60405180806020018060200180602001806020018060200186810386528b81815460018160011615610100020316600290048152602001915080546001816001161561010002031660029004801561068f5780601f106106645761010080835404028352916020019161068f565b820191906000526020600020905b81548152906001019060200180831161067257829003601f168201915b505086810385528a8181546001816001161561010002031660029004815260200191508054600181600116156101000203166002900480156107125780601f106106e757610100808354040283529160200191610712565b820191906000526020600020905b8154815290600101906020018083116106f557829003601f168201915b50508681038452898181546001816001161561010002031660029004815260200191508054600181600116156101000203166002900480156107955780601f1061076a57610100808354040283529160200191610795565b820191906000526020600020905b81548152906001019060200180831161077857829003601f168201915b50508681038352888181546001816001161561010002031660029004815260200191508054600181600116156101000203166002900480156108185780601f106107ed57610100808354040283529160200191610818565b820191906000526020600020905b8154815290600101906020018083116107fb57829003601f168201915b505086810382528781815460018160011615610100020316600290048152602001915080546001816001161561010002031660029004801561089b5780601f106108705761010080835404028352916020019161089b565b820191906000526020600020905b81548152906001019060200180831161087e57829003601f168201915b50509a505050505050505050505060405180910390f35b34156108bd57600080fd5b6108d360048080359060200190919050506114c6565b604051808273ffffffffffffffffffffffffffffffffffffffff1673ffffffffffffffffffffffffffffffffffffffff16815260200191505060405180910390f35b341561092057600080fd5b61094c600480803573ffffffffffffffffffffffffffffffffffffffff16906020019091905050611505565b6040518080602001806020018060200180602001806020018060200187810387528d8181546001816001161561010002031660029004815260200191508054600181600116156101000203166002900480156109e95780601f106109be576101008083540402835291602001916109e9565b820191906000526020600020905b8154815290600101906020018083116109cc57829003601f168201915b505087810386528c818154600181600116156101000203166002900481526020019150805460018160011615610100020316600290048015610a6c5780601f10610a4157610100808354040283529160200191610a6c565b820191906000526020600020905b815481529060010190602001808311610a4f57829003601f168201915b505087810385528b818154600181600116156101000203166002900481526020019150805460018160011615610100020316600290048015610aef5780601f10610ac457610100808354040283529160200191610aef565b820191906000526020600020905b815481529060010190602001808311610ad257829003601f168201915b505087810384528a818154600181600116156101000203166002900481526020019150805460018160011615610100020316600290048015610b725780601f10610b4757610100808354040283529160200191610b72565b820191906000526020600020905b815481529060010190602001808311610b5557829003601f168201915b5050878103835289818154600181600116156101000203166002900481526020019150805460018160011615610100020316600290048015610bf55780601f10610bca57610100808354040283529160200191610bf5565b820191906000526020600020905b815481529060010190602001808311610bd857829003601f168201915b5050878103825288818154600181600116156101000203166002900481526020019150805460018160011615610100020316600290048015610c785780601f10610c4d57610100808354040283529160200191610c78565b820191906000526020600020905b815481529060010190602001808311610c5b57829003601f168201915b50509c5050505050505050505050505060405180910390f35b3415610c9c57600080fd5b610cc8600480803573ffffffffffffffffffffffffffffffffffffffff1690602001909190505061153b565b60405180806020018060200180602001806020018060200186810386528b818154600181600116156101000203166002900481526020019150805460018160011615610100020316600290048015610d615780601f10610d3657610100808354040283529160200191610d61565b820191906000526020600020905b815481529060010190602001808311610d4457829003601f168201915b505086810385528a818154600181600116156101000203166002900481526020019150805460018160011615610100020316600290048015610de45780601f10610db957610100808354040283529160200191610de4565b820191906000526020600020905b815481529060010190602001808311610dc757829003601f168201915b5050868103845289818154600181600116156101000203166002900481526020019150805460018160011615610100020316600290048015610e675780601f10610e3c57610100808354040283529160200191610e67565b820191906000526020600020905b815481529060010190602001808311610e4a57829003601f168201915b5050868103835288818154600181600116156101000203166002900481526020019150805460018160011615610100020316600290048015610eea5780601f10610ebf57610100808354040283529160200191610eea565b820191906000526020600020905b815481529060010190602001808311610ecd57829003601f168201915b5050868103825287818154600181600116156101000203166002900481526020019150805460018160011615610100020316600290048015610f6d5780601f10610f4257610100808354040283529160200191610f6d565b820191906000526020600020905b815481529060010190602001808311610f5057829003601f168201915b50509a505050505050505050505060405180910390f35b6000600360008973ffffffffffffffffffffffffffffffffffffffff1673ffffffffffffffffffffffffffffffffffffffff168152602001908152602001600020905086816003019080519060200190610fdf92919061156c565b5085816004019080519060200190610ff892919061156c565b508481600201908051906020019061101192919061156c565b508381600001908051906020019061102a92919061156c565b508281600101908051906020019061104392919061156c565b508181600501908051906020019061105c92919061156c565b50600180805480600101828161107291906115ec565b916000526020600020900160008b909190916101000a81548173ffffffffffffffffffffffffffffffffffffffff021916908373ffffffffffffffffffffffffffffffffffffffff16021790555050505050505050505050565b7fdeb017956c894eba079e6a630f5cfec256256dc05616ad89f1eb825abef459633382604051808373ffffffffffffffffffffffffffffffffffffffff1673ffffffffffffffffffffffffffffffffffffffff16815260200180602001828103825283818151815260200191508051906020019080838360005b83811015611161578082015181840152602081019050611146565b50505050905090810190601f16801561118e5780820380516001836020036101000a031916815260200191505b50935050505060405180910390a150565b6111a7611618565b6000808373ffffffffffffffffffffffffffffffffffffffff1673ffffffffffffffffffffffffffffffffffffffff1681526020019081526020016000206000018054600181600116156101000203166002900480601f01602080910402602001604051908101604052809291908181526020018280546001816001161561010002031660029004801561127c5780601f106112515761010080835404028352916020019161127c565b820191906000526020600020905b81548152906001019060200180831161125f57829003601f168201915b50505050509050919050565b60008060008573ffffffffffffffffffffffffffffffffffffffff1673ffffffffffffffffffffffffffffffffffffffff1681526020019081526020016000209050828160000190805190602001906112e292919061156c565b50818160010190805190602001906112fb92919061156c565b50600180805480600101828161131191906115ec565b9160005260206000209001600087909190916101000a81548173ffffffffffffffffffffffffffffffffffffffff021916908373ffffffffffffffffffffffffffffffffffffffff160217905550505050505050565b6000600260008873ffffffffffffffffffffffffffffffffffffffff1673ffffffffffffffffffffffffffffffffffffffff1681526020019081526020016000209050858160000190805190602001906113c292919061156c565b50848160010190805190602001906113db92919061156c565b50838160020190805190602001906113f492919061156c565b508281600301908051906020019061140d92919061156c565b508181600401908051906020019061142692919061156c565b50600180805480600101828161143c91906115ec565b916000526020600020900160008a909190916101000a81548173ffffffffffffffffffffffffffffffffffffffff021916908373ffffffffffffffffffffffffffffffffffffffff160217905550505050505050505050565b6000602052806000526040600020600091509050806000019080600101908060020190806003019080600401905085565b6001818154811015156114d557fe5b90600052602060002090016000915054906101000a900473ffffffffffffffffffffffffffffffffffffffff1681565b60036020528060005260406000206000915090508060000190806001019080600201908060030190806004019080600501905086565b6002602052806000526040600020600091509050806000019080600101908060020190806003019080600401905085565b828054600181600116156101000203166002900490600052602060002090601f016020900481019282601f106115ad57805160ff19168380011785556115db565b828001600101855582156115db579182015b828111156115da5782518255916020019190600101906115bf565b5b5090506115e8919061162c565b5090565b81548183558181151161161357818360005260206000209182019101611612919061162c565b5b505050565b602060405190810160405280600081525090565b61164e91905b8082111561164a576000816000905550600101611632565b5090565b905600a165627a7a7230582088dbecc949213df1d564d44371a15b589121ab5e1ffe862a6e926bf24aa72af10029",
  "source": "pragma solidity ^0.4.2;\r\n\r\n\r\ncontract Adoption {\r\n\r\n    struct Man {\r\n\r\n        string hashcode;\r\n        string id;\r\n        string f_name;\r\n        string l_name;\r\n        string email;\r\n        }\r\n    struct Man2{\r\n        string b_day;\r\n        string gender;\r\n        string occupation;\r\n        string blood_group;\r\n        string marital_status;\r\n        }\r\n    struct Man3{\r\n        string state;\r\n        string city;\r\n        string country;\r\n        string home_address;\r\n        string current_address;\r\n        string phone_no;\r\n    }\r\n\r\n    mapping (address => Man) public Mans;\r\n    address[] public ManAccts;\r\n    //uint public count = 3;\r\n\r\n    mapping (address => Man2) public Mans2;\r\n\r\n    mapping (address => Man3) public Mans3;\r\n\r\n    event LoginAttempt(address sender, string challenge);\r\n\r\n    function login(string challenge) {\r\n        LoginAttempt(msg.sender, challenge);\r\n    }\r\n\r\n    function personal_details(address _address, string _b_day, string _gender, string _occupation, string _blood_group, string _marital_status){\r\n      var man =Mans2[_address];\r\n\r\n      man.b_day= _b_day;\r\n      man.gender= _gender;\r\n      man.occupation = _occupation;\r\n      man.blood_group = _blood_group;\r\n      man.marital_status = _marital_status;\r\n\r\n    ManAccts.push(_address)-1;\r\n    }\r\n\r\n    function contact_details(address _address, string _home_address, string _current_address, string _country, string _state, string _city, string _phone_no){\r\n      var man = Mans3[_address];\r\n\r\n      man.home_address = _home_address;\r\n      man.current_address = _current_address;\r\n      man.country = _country;\r\n      man.state = _state;\r\n      man.city = _city;\r\n      man.phone_no = _phone_no;\r\n      \r\n      ManAccts.push(_address)-1;\r\n\r\n    }\r\n    function saveHashcode(address _address, string _hashcode, string _id) public {\r\n\r\n      var man = Mans[_address];\r\n\r\n      man.hashcode = _hashcode;\r\n      man.id = _id;\r\n      ManAccts.push(_address)-1;\r\n\r\n    }\r\n\r\n\r\n    function getHashcode(address _address) view public returns (string) {\r\n        return (Mans[_address].hashcode);\r\n    }\r\n\r\n}\r\n",
  "sourcePath": "F:\\h\\contracts\\Adoption.sol",
  "compiler": {
    "name": "solc",
    "version": "0.4.18+commit.9cf6e910.Emscripten.clang"
  },
  "schemaVersion": "1.0.1",
  "updatedAt": "2018-03-21T17:28:11.215Z"
}